:0400000007EF00F016
:0A0008006E820BED08F01FEF0FF001
:10100000003738392F3435362A3132332D23303DED
:051010002B2569000022
:101016000600FACF56F0FBCF57F0D9CF58F0DACF0B
:1010260059F0F3CF5AF0F4CF5BF0F2A81DEF08F0B9
:101036001FEF08F028EF08F0F2A224EF08F026EFE1
:1010460008F028EF08F055EC10F0F0A62DEF08F0A8
:101056002FEF08F038EF08F0F0A034EF08F036EF85
:1010660008F038EF08F053EC10F0F0A83DEF08F068
:101076003FEF08F048EF08F0F0A244EF08F046EF23
:1010860008F048EF08F051EC10F0F2A64DEF08F02A
:101096004FEF08F06AEF08F0F2A054EF08F056EFB1
:1010A60008F06AEF08F081A85BEF08F05DEF08F042
:1010B6006AEF08F06C04D8A463EF08F065EF08F057
:1010C6006AEF08F0000E6C6E000E28EC10F0F2A627
:1010D6006FEF08F071EF08F08CEF08F0F2A076EFF2
:1010E60008F078EF08F08CEF08F081B87DEF08F093
:1010F6007FEF08F08CEF08F06C50D8A485EF08F06D
:1011060087EF08F08CEF08F0010E6C6E010E28ECEC
:1011160010F0F2A691EF08F093EF08F0AEEF08F0AA
:10112600F2A098EF08F09AEF08F0AEEF08F081AA67
:101136009FEF08F0A1EF08F0AEEF08F06B04D8A41B
:10114600A7EF08F0A9EF08F0AEEF08F0000E6B6EFF
:10115600000E1BEC10F0F2A6B3EF08F0B5EF08F0A6
:10116600D0EF08F0F2A0BAEF08F0BCEF08F0D0EF2D
:1011760008F081BAC1EF08F0C3EF08F0D0EF08F02D
:101186006B50D8A4C9EF08F0CBEF08F0D0EF08F009
:10119600010E6B6E010E1BEC10F0F2A6D5EF08F0F7
:1011A600D7EF08F0F2EF08F0F2A0DCEF08F0DEEF80
:1011B60008F0F2EF08F081ACE3EF08F0E5EF08F095
:1011C600F2EF08F06A04D8A4EBEF08F0EDEF08F0B0
:1011D600F2EF08F0000E6A6E000E0EEC10F0F2A6AA
:1011E600F7EF08F0F9EF08F014EF09F0F2A0FEEFC0
:1011F60008F000EF09F014EF09F081BC05EF09F0E3
:1012060007EF09F014EF09F06A50D8A40DEF09F0C2
:101216000FEF09F014EF09F0010E6A6E010E0EECE5
:1012260010F0F2A619EF09F01BEF09F036EF09F0FE
:10123600F2A020EF09F022EF09F036EF09F081AEB7
:1012460027EF09F029EF09F036EF09F06904D8A471
:101256002FEF09F031EF09F036EF09F0000E696E55
:10126600000E01EC10F0F2A63BEF09F03DEF09F09D
:1012760058EF09F0F2A042EF09F044EF09F058EFF9
:1012860009F081BE49EF09F04BEF09F058EF09F07C
:101296006950D8A451EF09F053EF09F058EF09F05F
:1012A600010E696E010E01EC10F09DAC5DEF09F0C8
:1012B6005FEF09F068EF09F09EAC64EF09F066EFA6
:1012C60009F068EF09F05BEC10F0F2AA6DEF09F097
:1012D6006FEF09F078EF09F0F2A474EF09F076EFFA
:1012E60009F078EF09F03BEC10F09DA07DEF09F0D6
:1012F6007FEF09F088EF09F09EA084EF09F086EFF2
:1013060009F088EF09F0B2EC0FF09DA28DEF09F01D
:101316008FEF09F098EF09F09EA294EF09F096EF8F
:1013260009F098EF09F041EC10F0A0A29DEF09F04A
:101336009FEF09F0A8EF09F0A1A2A4EF09F0A6EF2C
:1013460009F0A8EF09F035EC10F09DA8ADEF09F013
:10135600AFEF09F0B8EF09F09EA8B4EF09F0B6EFC9
:1013660009F0B8EF09F04BEC10F09DAABDEF09F0BB
:10137600BFEF09F0C8EF09F09EAAC4EF09F0C6EF67
:1013860009F0C8EF09F05DEC10F09DA6CDEF09F06D
:10139600CFEF09F0D8EF09F09EA6D4EF09F0D6EF0B
:1013A60009F0D8EF09F04DEC10F0A0A6DDEF09F03A
:1013B600DFEF09F0E8EF09F0A1A6E4EF09F0E6EFA8
:1013C60009F0E8EF09F04FEC10F09DA4EDEF09F0FD
:1013D600EFEF09F0F8EF09F09EA4F4EF09F0F6EF4D
:1013E60009F0F8EF09F059EC10F0A0A0FDEF09F0B4
:1013F600FFEF09F008EF0AF0A1A004EF0AF006EFEC
:101406000AF008EF0AF057EC10F05BC0F4FF5AC080
:10141600F3FF59C0DAFF58C0D9FF57C0FBFF56C0CB
:10142600FAFF6E921100000E0001BB6FB751B811A2
:10143600D8A420EF0AF022EF0AF026EF0AF0000EF9
:10144600BC6FBAEF0AF0B7C066F0B8C067F044ECFC
:101456000EF00001BC6F010EB725666E000EB821B6
:10146600676E44EC0EF00001BC6F000EBB6FBB5103
:10147600B725B96F000EB821BA6F020EB925666E90
:10148600000EBA21676E44EC0EF00001BB2B070E6E
:10149600BB6550EF0AF052EF0AF03AEF0AF0340E4D
:1014A6000001B96FF10EE82EFED7B92FFCD700D098
:1014B600B7C0AEF0B8C0AFF0380E0001B06FEFECB9
:1014C6000CF00D0E0001B96FFB0EE82EFED7B92FFA
:1014D600FCD700D0B7C0AEF0B8C0AFF0380E0001F0
:1014E600B06FEFEC0CF0640EE82EFED7B7C0AEF08E
:1014F600B8C0AFF0380E0001B06FEFEC0CF0B7C01B
:10150600AEF0B8C0AFF0010E0001B06FEFEC0CF01A
:10151600B7C0AEF0B8C0AFF0020E0001B06FEFEC8E
:101526000CF0B7C0AEF0B8C0AFF0060E0001B06F59
:10153600EFEC0CF0B7C0AEF0B8C0AFF00C0E000187
:10154600B06FEFEC0CF0B7C0AEF0B8C0AFF0380E2D
:101556000001B06FEFEC0CF0B7C0AEF0B8C0AFF062
:10156600800E0001B06FEFEC0CF00001BC6FBC51B7
:101576001200000E0001B76FB351B411D8A4C6EF24
:101586000AF0C8EF0AF0CCEF0AF0000EB86F60EF71
:101596000BF0B3C066F0B4C067F044EC0EF0000187
:1015A600B86F010EB325666E000EB421676E44EC6B
:1015B6000EF00001B86F000EB76FB751B325B56FC7
:1015C600000EB421B66F020EB525666E000EB6216A
:1015D600676E44EC0EF00001B72B030EB765F6EF0D
:1015E6000AF0F8EF0AF0E0EF0AF0340E0001B56FEA
:1015F600F10EE82EFED7B52FFCD700D0B3C0AFF062
:10160600B4C0B0F0380E0001B16FC6EC0DF00D0E8F
:101616000001B56FFB0EE82EFED7B52FFCD700D024
:10162600B3C0AFF0B4C0B0F0380E0001B16FC6EC75
:101636000DF0640EE82EFED7B3C0AFF0B4C0B0F024
:10164600380E0001B16FC6EC0DF0B3C0AFF0B4C0F8
:10165600B0F0010E0001B16FC6EC0DF0B3C0AFF0F3
:10166600B4C0B0F0020E0001B16FC6EC0DF0B3C00D
:10167600AFF0B4C0B0F0060E0001B16FC6EC0DF0CD
:10168600B3C0AFF0B4C0B0F00C0E0001B16FC6EC41
:101696000DF0B3C0AFF0B4C0B0F0280E0001B16FCA
:1016A600C6EC0DF0B3C0AFF0B4C0B0F0800E0001D0
:1016B600B16FC6EC0DF00001B86FB8511200010E03
:1016C600646E5C505D10D8B46BEF0BF06DEF0BF0F1
:1016D6007EEF0BF05CC0D9FF5DC0DAFFDF30E83289
:1016E600E832070B5E6E070E5E647CEF0BF07EEF52
:1016F6000BF0E1EF0BF0000E646E02EF0CF05CC035
:10170600D9FF5DC0DAFFDF30E832E832070B5E6EE4
:10171600010E5F6E5E2A92EF0BF0D8905F365E2E5A
:1017260090EF0BF05F50FF0A606E5CC0D9FF5DC0A2
:10173600DAFFDF50070B616E6150020D940EF32441
:10174600D96E000EF420DA6EDECF62F0DDCF63F0E4
:1017560062C0D9FF63C0DAFF6050DF1602EF0CF0FB
:101766005CC0D9FF5DC0DAFFDF30E832E832070B34
:101776005E6E010E5F6E5E2AC3EF0BF0D8905F3689
:101786005E2EC1EF0BF05CC0D9FF5DC0DAFFDF5003
:10179600070B606E6050020D940EF324D96E000E96
:1017A600F420DA6EDECF61F0DDCF62F061C0D9FFE2
:1017B60062C0DAFF5F50DF1202EF0CF05CC0D9FFA7
:1017C6005DC0DAFFDFBCEAEF0BF0EDEF0BF0010EC8
:1017D600EEEF0BF0000E5E6E5F6A5F50000AD8B443
:1017E600F7EF0BF07EEF0BF05E50000AD8B482EFF5
:1017F6000BF0010AD8B4B3EF0BF07EEF0BF0645098
:101806001200010E656E5C505D10D8B40DEF0CF041
:101816000FEF0CF020EF0CF05CC0D9FF5DC0DAFFD3
:10182600DF30E832E832070B5F6E070E5F641EEFAB
:101836000CF020EF0CF083EF0CF0000E656E98EFC5
:101846000CF05CC0D9FF5DC0DAFFDF30E832E83269
:10185600070B5F6E010E606E5F2A34EF0CF0D890B6
:1018660060365F2E32EF0CF06050FF0A616E5CC08E
:10187600D9FF5DC0DAFFDF50070B626E6250020DC2
:101886008A0EF324D96E000EF420DA6EDECF63F0F2
:10189600DDCF64F063C0D9FF64C0DAFF6150DF16A4
:1018A60098EF0CF05CC0D9FF5DC0DAFFDF30E8329C
:1018B600E832070B5F6E010E606E5F2A65EF0CF073
:1018C600D89060365F2E63EF0CF05CC0D9FF5DC028
:1018D600DAFFDF50070B616E6150020D8A0EF324AA
:1018E600D96E000EF420DA6EDECF62F0DDCF63F043
:1018F60062C0D9FF63C0DAFF6050DF1298EF0CF0C8
:101906005E505F6E606A6050000AD8B48DEF0CF0CE
:1019160020EF0CF05F50000AD8B424EF0CF0010A57
:10192600D8B455EF0CF020EF0CF0655012005E5065
:101936005F10D8A4A1EF0CF0A3EF0CF0A7EF0CF00A
:10194600000E626EEDEF0CF0CD9020EE05F05E50CD
:10195600D9265F50DA22DF50030B606E603ACD5015
:101966006018CF0B6018CD6E5EC05CF05FC05DF096
:1019760005EC0EF020EE03F05E50D9265F50DA2219
:10198600DECF60F0DDCF61F061C060F0616A60506B
:10199600CF6E20EE03F05E50D9265F50DA22DF507C
:1019A600CE6E20EE03F05E50D9265F50DA22DECFEF
:1019B60011F0DDCF12F09D809E905EC0D9FF5FC012
:1019C600DAFFDECF0FF0DDCF10F0F28EF28CCD8095
:1019D600010E626E62501200000E0001B66FAE512B
:1019E600AF11D8A4F9EF0CF0FBEF0CF0FFEF0CF001
:1019F600000EB56F3AEF0DF0AEC05CF0AFC05DF013
:101A0600000E5E6E04EC0CF0000E0001B66FB651CF
:101A1600AE25B16F000EAF21B26F020EB1255C6E1E
:101A2600000EB2215D6EB6C0B3F0B0C0B4F0B32BF9
:101A36001FEF0DF0D890B433B32F1DEF0DF000015A
:101A4600B451010B5E6E04EC0CF00001B62B070ED0
:101A5600B66530EF0DF032EF0DF00AEF0DF0AEC0C7
:101A660066F0AFC067F07CEC0FF00001B56FB551C2
:101A760012004B504C10D8B443EF0DF045EF0DF06B
:101A860056EF0DF04BC0D9FF4CC0DAFFDF30E8321D
:101A9600E832070B4D6E070E4D6454EF0DF056EF0E
:101AA6000DF058EF0DF084EF0DF04BC0D9FF4CC090
:101AB600DAFFDF30E832E832070B4D6E010E4E6E6C
:101AC6004D2A68EF0DF0D8904E364D2E66EF0DF08C
:101AD6004BC0D9FF4CC0DAFFDF50070B4F6E4F509B
:101AE600020D8A0EF324D96E000EF420DA6EDECFD4
:101AF60050F0DDCF51F050C0D9FF51C0DAFF4E5043
:101B0600DF1A1200010E0001B26FAF51B011D8A456
:101B16008FEF0DF091EF0DF095EF0DF0000EB26F17
:101B2600C3EF0DF042C0B3F0AFC0D9FFB0C0DAFFCB
:101B3600DF500F0BB16FB351B119F80BB119B36F79
:101B4600AFC0D9FFB0C0DAFFDF38070BB16FB147BE
:101B5600B147B147B351B119C70BB119B36FB39DB3
:101B6600AFC0D9FFB0C0DAFFDFAE02D0B38F02D06C
:101B76000001B39FB30E666E000E676E44EC0EF066
:101B86000001B25112000001AF51B011D8A4CEEF3E
:101B96000DF0D0EF0DF0D4EF0DF0000EB26F03EFA5
:101BA6000EF0AFC05CF0B0C05DF0000E5E6E04ECEF
:101BB6000CF00001B26FAFC066F0B0C067F0B1398B
:101BC6000F0B686EB6EC0EF00001B26FAFC066F098
:101BD600B0C067F097EC0FF00001B26FAFC066F0CF
:101BE600B0C067F0B1C068F0B6EC0EF00001B26F9D
:101BF600AFC066F0B0C067F097EC0FF00001B26FAF
:101C0600B251120020EE05F05C50D9265D50DA2262
:101C1600DFB410EF0EF012EF0EF015EF0EF0CD92CE
:101C260043EF0EF020EE05F05C50D9265D50DA2227
:101C3600DFA420EF0EF022EF0EF043EF0EF0CD8280
:101C460020EE05F05C50D9265D50DA22DFA62EEF95
:101C56000EF030EF0EF033EF0EF0CD8443EF0EF0C2
:101C660020EE05F05C50D9265D50DA22DFB63EEF55
:101C76000EF040EF0EF043EF0EF0CD9443EF0EF072
:101C8600120066506710D8B44BEF0EF04DEF0EF011
:101C96005EEF0EF066C0D9FF67C0DAFFDF30E832CC
:101CA600E832070B686E070E68645CEF0EF05EEFB5
:101CB6000EF063EF0EF0000E0001AE6F7BEF0EF03C
:101CC60066C05CF067C05DF062EC0BF00001AE6FC1
:101CD60066C05CF067C05DF066C0D9FF67C0DAFF1A
:101CE600000EDFBE010E5E6E04EC0CF00001AE6F5E
:101CF600AE51120052505310D8A484EF0EF086EF66
:101D06000EF088EF0EF0B5EF0EF03FC055F052C062
:101D1600D9FF53C0DAFFDF500F0B546E55505418DD
:101D2600F80B5418556E52C0D9FF53C0DAFFDF388E
:101D3600070B546E54465446544655505418C70B18
:101D46005418556E559C52C0D9FF53C0DAFFDFAE0A
:101D560002D0558E01D0559E550E4B6E000E4C6E20
:101D66003CEC0DF01200020E66245C6E000E67203D
:101D76005D6E6850010B5E6E04EC0CF0030E66247B
:101D86005C6E000E67205D6ED8906830010B5E6E4B
:101D960004EC0CF0040E66245C6E000E67205D6E8B
:101DA6006840E8423F0B010B5E6E04EC0CF0050E3A
:101DB60066245C6E000E67205D6E6838E8461F0B71
:101DC600010B5E6E04EC0CF00001AE6FAE5112001A
:101DD600000E626E000E636E5C505D10D8B4F6EFB6
:101DE6000EF0F8EF0EF001EF0FF05E505F10D8A482
:101DF600FFEF0EF001EF0FF005EF0FF0000E646E2F
:101E06001DEF0FF0CECF62F0CFCF63F0625063C00C
:101E160060F0616A60C061F0606A6026000E61224F
:101E26005EC0D9FF5FC0DAFF60C0DEFF61C0DDFFC4
:101E3600010E646E645012009A0EF66E1F0EF76E57
:101E4600000EF86E00EE80F010EE2EF00900F5CFD1
:101E5600EEFFE550E150FAE1900EF66E200EF76EB9
:101E6600000EF86E00EE69F010EE05F00900F5CFF1
:101E7600EEFFE550E150FAE100EEBDF00A0EEE6A23
:101E8600E806FDE100EE01F04A0EEE6AE806FDE125
:101E96006E906E92000150EF0FF045EC10F0000EC0
:101EA600436E000E446E000E456E4884FC0E4816C6
:101EB600000E476E000E466E488A4896430E5E6ECA
:101EC600000E5F6E9AEC0CF06D0E0001AF6F000E07
:101ED600B06F85EC0DF0430E5C6E000E5D6E490E24
:101EE6005E6E000E5F6EEBEC0EF06EEF0FF007EF1E
:101EF60000F0010E66245C6E000E67205D6E010E1A
:101F06005E6E04EC0CF0030EE82EFED700F0010E18
:101F160066245C6E000E67205D6E000E5E6E04EC3D
:101F26000CF0686E68501200010E66245C6E000E9E
:101F360067205D6E010E5E6E04EC0CF0030EE82E5B
:101F4600FED700F0010E66245C6E000E67205D6E03
:101F5600000E5E6E04EC0CF0686E685012009E90E7
:101F66001250CF6E11C0CEFF0F501010D8B4BEEF76
:101F76000FF0C0EF0FF0CCEF0FF002D8CCEF0FF060
:101F86000500FA6E0F50FD6E1050FE6EFF6AFA5095
:101F960012001200800F810F820F830F840F890FAA
:101FA6008A0F8B0F8C0F8D0F920F930F940F950F37
:101FB600960F323A030B131B232B333B020A121ADA
:101FC600222AA80E0001B36F000EB46FBCEC0AF013
:101FD6009E0E0001B76F000EB86F16EC0AF01200E5
:101FE600010E0001C327000EC423C523C6236D0EB0
:101FF600526E000E536E7DEC0EF012004B6EF29098
:102006004B50D8A409EF10F00BEF10F00DEF10F0C5
:102016000DEF10F012004B6EF2904B50D8A416EF55
:1020260010F018EF10F01AEF10F01AEF10F012007F
:102036004B6EF2904B50D8A423EF10F025EF10F022
:1020460027EF10F027EF10F012004B6EF2904B5076
:10205600D8A430EF10F032EF10F034EF10F034EF78
:1020660010F01200A1920C50B36E0BC0B2FF12001A
:10207600F2941650D76E15C0D6FF12009E923BC042
:0F208600CCFF1200E4EC0FF01200010101010287
:102096009D9812009E961200A1961200F0921200D0
:1020A600F0901200F2921200A19012009E9412007B
:0620B6009E9C12001200C6
:020000040020DA
:08000000FFFFFFFFFFFFFFFF00
:020000040030CA
:0E000000FF020912FF8181FF0FC00FE00F40C9
:00000001FF
